:020000040800F2
:10000000600600206D0100083D0400084B03000855
:100010004F03000827020008A108000800000000A4
:10002000000000000000000000000000D1050008F2
:100030002B020008000000008D050008BD06000826
:100040008701000887010008870100088701000870
:100050008701000887010008870100088701000860
:100060008701000887010008870100088701000850
:100070008701000887010008870100088701000840
:100080008701000887010008870100088701000830
:100090008701000887010008870100088701000820
:1000A0008701000887010008870100088701000810
:1000B0008701000887010008870100088701000800
:1000C00087010008870100088701000887010008F0
:1000D00087010008870100088701000887010008E0
:1000E00087010008870100088701000800F002F876
:1000F00000F02CF80AA090E8000C82448344AAF196
:100100000107DA4501D100F021F8AFF2090EBAE893
:100110000F0013F0010F18BFFB1A43F0010318473B
:100120009C070000AC0700000023002400250026E7
:10013000103A28BF78C1FBD8520728BF30C148BF4A
:100140000B6070471FB51FBD10B510BD00F031F832
:100150001146FFF7F7FF00F0A5FB00F04FF803B4DE
:10016000FFF7F2FF03BC00F057F800000948804792
:1001700009480047FEE7FEE7FEE7FEE7FEE7FEE789
:10018000FEE7FEE7FEE7FEE704480549054A064BA1
:1001900070470000C1060008ED0000086000002064
:1001A0006006002060020020600200207047704757
:1001B0007047754600F02CF8AE4605006946534678
:1001C00020F00700854618B020B5FFF7DDFFBDE839
:1001D00020404FF000064FF000074FF000084FF0AE
:1001E000000B21F00701AC46ACE8C009ACE8C0093F
:1001F000ACE8C009ACE8C0098D46704710B50446AC
:10020000AFF300802046BDE81040FFF7A8BF000014
:10021000004870470000002001491820ABBEFEE7EF
:1002200026000200704700BFFEE770472DE9F0414D
:10023000024600250026002000230024002791F814
:1002400003C00CF00F0591F803C00CF0100CBCF1CA
:10025000000F03D091F802C04CEA050591F800C0E8
:10026000BCF1000F31D0146800202BE04FF0010CDE
:100270000CFA00F3B1F800C00CEA03069E4220D14C
:1002800083004FF00F0C0CFA03F7BC4305FA03FC94
:100290004CEA040491F803C0BCF1280F06D14FF0DA
:1002A000010C0CFA00FCC2F814C00AE091F803C07B
:1002B000BCF1480F05D14FF0010C0CFA00FCC2F85C
:1002C00010C0401C0828D1D31460B1F800C0BCF1A4
:1002D000FF0F34DD546800202EE000F1080C4FF0D1
:1002E000010808FA0CF3B1F800C00CEA03069E42BC
:1002F00021D183004FF00F0C0CFA03F7BC4305FA31
:1003000003FC4CEA040491F803C0BCF1280F05D1AA
:1003100000F1080C08FA0CF8C2F8148091F803C038
:10032000BCF1480F07D100F1080C4FF0010808FAA2
:100330000CF8C2F81080401C0828CED35460BDE8E9
:10034000F081416170470161704700BFFEE700BF67
:10035000FEE7000008B50121042000F029F9102073
:100360008DF803003020ADF8000003208DF8020066
:1003700069460348FFF75AFF00F062F808BD000025
:100380000008014010B50446002C0BDB10210C487E
:10039000FFF7D9FF20210A48FFF7D3FFA0B200F0F2
:1003A00099F80BE010210648FFF7CBFF2021044805
:1003B000FFF7C9FF614288B200F08CF810BD000061
:1003C0000008014008B50121082000F0F1F81020D4
:1003D0008DF803004FF4C040ADF8000003208DF805
:1003E000020069460248FFF721FF00F07BF808BDD4
:1003F000000C014010B50446002C0DDB4FF40051F9
:100400000D48FFF7A0FF4FF480410B48FFF799FF1D
:10041000A0B200F0B1F80DE04FF400510648FFF72C
:1004200090FF4FF480410448FFF78DFF614288B28E
:1004300000F0A2F810BD0000000C01407047000061
:1004400000B589B00121084600F0A2F8012104207E
:1004500000F0AEF818208DF823000420ADF820003D
:1004600003208DF8220008A91948FFF7DFFE4FF09E
:10047000804000F061F90020ADF81A00ADF81600D8
:100480006320ADF818002320ADF8140000208DF88B
:100490001C0005A94FF0804000F0B0F901A800F061
:1004A000A1F96020ADF804000020ADF80C00012097
:1004B000ADF806000020ADF80A0001A94FF0804019
:1004C00000F040F90121880700F02AF909B000BDC9
:1004D0000008014010B5044621464FF0804000F06E
:1004E0008BF910BD00B589B00121022000F050F851
:1004F0000121082000F05CF818208DF8230001206D
:10050000ADF8200003208DF8220008A91848FFF755
:100510008DFE184800F010F90020ADF81A00ADF873
:1005200016006320ADF818002320ADF81400002059
:100530008DF81C0005A90F4800F060F901A800F033
:1005400051F96020ADF804000020ADF80C00012046
:10055000ADF806000020ADF80A0001A9054800F03A
:10056000F1F80121034800F0DBF809B000BD0000FC
:10057000000C01400004004010B50446214602482A
:1005800000F03AF910BD0000000400407047000080
:1005900029B1064AD2690243044BDA6104E0034AF6
:1005A000D2698243014BDA617047000000100240BB
:1005B00029B1064A92690243044B9A6104E0034A56
:1005C00092698243014B9A6170470000001002401B
:1005D000704710B500F002F810BD00000CB5002007
:1005E000019000903348006840F480303149086041
:1005F00000BF3048006800F4003000900198401CB3
:100600000190009818B90198B0F5A06FF1D1294870
:10061000006800F4003010B10120009001E00020DB
:1006200000900098012843D12348006840F0100052
:10063000214908600846006820F003000860084669
:10064000006840F0020008601A4840681949486094
:100650000846406848600846406840F4806048604A
:100660000846406820F47C1048600846406840F422
:10067000E81048600846006840F08070086000BFDD
:100680000C48006800F000700028F9D00948406864
:1006900020F00300074948600846406840F0020027
:1006A000486000BF0348406800F00C000828F9D1FA
:1006B0000CBD000000100240002002407047000006
:1006C00010B51348006840F0010011490860084661
:1006D0004068104908400E494860084600680E49C5
:1006E00008400B4908600846006820F48020086034
:1006F0000846406820F4FE0048604FF41F00886000
:10070000FFF767FF4FF000600449086010BD00006C
:10071000001002400000FFF8FFFFF6FE08ED00E0C9
:1007200021B1028842F00102028004E002884FF603
:10073000FE731A400280704701894FF6F87211402B
:100740000181704770B5002400220023058C4FF60C
:10075000FF6635400584028C8388848B4FF68F7545
:100760002C404FF6FC752C400D882C434FF6FF555E
:100770002A400D894FF6FF7606EA05252A434D8863
:1007800006EA05252A43154DA84202D0144DA84279
:100790001DD14FF2FF752A404D894FF6FF7606EACC
:1007A00005252A434FF6FF352A408D8806EA0525A0
:1007B0002A434EF6FF752B404DF6FF752B408D8971
:1007C00006EA05152B43CD8906EA05152B438380E0
:1007D0008483CD888587028470BD0000002C014091
:1007E000003401400021018041808180C18001816D
:1007F00041818181C18170478187704700220288D1
:100800001D4B98420ED01D4B98420BD0B0F1804F3B
:1008100008D01B4B984205D01A4B984202D01A4B75
:10082000984204D14FF68F731A404B881A43174BE6
:10083000984207D0164B984204D04FF6FF431A4017
:10084000CB881A4302808B8883850B8803850A4BEB
:1008500098420BD0094B984208D00E4B984205D0D5
:100860000D4B984202D00D4B984201D10B7A038672
:100870000123838270470000002C014000340140B6
:100880000004004000080040000C00400010004040
:100890000014004000400140004401400048014075
:1008A00000BFFEE7FFF756FDFFF78CFD05E00A20CD
:1008B000FFF768FD5A20FFF79DFDF8E7CC08000818
:0C08C00000000020600600002801000875
:04000005080000ED02
:00000001FF
